:100000000C948D010C94AA010C94AA010C94AA01E1
:100010000C94AA010C94AA010C94AA010C94AA01B4
:100020000C94AA010C94AA010C94AA010C94AA01A4
:100030000C94AA010C94AA010C94AA010C94AA0194
:100040000C94AA010C94AA010C94AA010C94AA0184
:100050000C94AA010C94AA010C94AA010C94AA0174
:100060000C94D6070C94AA01400946094C09520980
:1000700058095E0964096A097009760907634236FE
:10008000B79BD8A71A39685618AEBAAB558C1D3C29
:10009000B7CC5763BD6DEDFD753EF6177231BF00ED
:1000A0000000803F08000000BE922449123EABAA27
:1000B000AA2ABECDCCCC4C3E00000080BEABAAAA82
:1000C000AA3E00000000BF000000803F00000000CA
:1000D00000084178D3BB4387D1133D190E3CC3BD03
:1000E0004282AD2B3E68EC8276BED98FE1A93E4CB0
:1000F00080EFFFBE01C4FF7F3F0000000000000052
:1001000051004501D8020705CB071F0BF90E50130C
:100110001918471DCD229E28AB2EE334383B984159
:10012000F5473E4E6254535A00605C65596AEA6E68
:1001300004739C76A979247C057E497FEC7FEC7F53
:10014000497F057E247CA9799C760473EA6E596AFE
:100150005C650060535A62543E4EF5479841383B07
:10016000E334AB2E9E28CD22471D19185013F90EEB
:100170001F0BCB070705D802450151000000000006
:10018000080D1013151618191B1C1D1E1E1F2021EB
:10019000212223232424252526262627272828280C
:1001A0002929292A2A2A2B2B2B2B2C2C2C2C2D2DA0
:1001B0002D2D2E2E2E2E2E2F2F2F2F2F3030303054
:1001C0003031313131313132323232323232333315
:1001D00033333333333434343434343434353535E1
:1001E00035353535353536363636363636363637B4
:1001F0003737373737373737373838383838383888
:100200003838383839393939393939393939393962
:100210003A3A3A3A3A3A3A3A3A3A3A3A3A3B3B3B3B
:100220003B3B3B3B3B3B3B3B3B3B3B3B3C3C3C3C1A
:100230003C3C3C3C3C3C3C3C3C3C3C3C3D3D3D3DFA
:100240003D3D3D3D3D3D3D3D3D3D3D3D3D3E3E3EDB
:100250003E3E3E3E3E3E3E3E3E3E3E3E3E3E3E3FBD
:100260003F3F3F3F3F3F3F3F3F3F3F3F3F3F3F3F9E
:100270003F3F3F3F404040404040404040403807C3
:100280003C0F3A173E1F39273D2F3B373003340BC5
:100290003213361B3123352B28052C0D2A152E1D24
:1002A0002925200124092211261918061C0E1A16C8
:1002B0001002140A08044276FC30825A825AFC303A
:1002C00042768A7DF9184276FC306E6A1D47825A62
:1002D000825A1D476E6AFC304276F9188A7D627F29
:1002E0008C0C8A7DF9187D7A28254276FC30E370E3
:1002F000573C6E6A1D47F2623451825A825A345119
:10030000F2621D476E6A573CE370FC304276282546
:100310007D7AF9188A7D8C0C627F11241FBECFEF85
:10032000D8E0DEBFCDBF12E0A0E0B1E0E2ECFBE13F
:1003300002C005900D92A630B107D9F724E0A6E0DF
:10034000B2E001C01D92A43BB207E1F70E9466072C
:100350000C94DF0D0C940000EF92FF920F931F930B
:10036000CF93DF9380910401811126C00E942E0952
:10037000C0E0D0E009E710E00E94BC09F8018081EC
:10038000FE01E85AFD4F80832196C034D105A1F7C4
:1003900081E00E942E09C0E0D0E009E710E00E9451
:1003A000BC09F8018081FE01EE53FD4F8083219648
:1003B000C034D105A1F717C083E00E942E09C4E321
:1003C000D4E00F2EF4EBEF2EF4E0FF2EF02D09E732
:1003D00010E00E94BC09F801808190E08993999314
:1003E000EC16FD06B1F7DF91CF911F910F91FF90B1
:1003F000EF9008953091290240E050E080E090E0D5
:10040000FC01E85AFD4F2081231718F0521708F419
:10041000522FFC01EE53FD4F2081231718F0421795
:1004200008F4422F01968034910551F75093280229
:100430004093270208952F923F924F925F92FF922E
:100440000F931F93CF93DF93C4E3D4E0EEEFF0E07C
:10045000FF2440E46591759108811981970320017B
:100460000E034F1C10019E035F08300C411C5F1CE3
:10047000F8035F08300C411C5F1C499259924A9561
:1004800049F7DF91CF911F910F91FF905F904F90AF
:100490003F902F9011242F923F926F927F92CF9393
:1004A000DF93EEE7F2E04CE1A591BB27AA0FBB1F5B
:1004B000AC5CBB4F2D903C90C591DD27CC0FDD1F70
:1004C000CC5CDB4F688079807C926E922882398286
:1004D0004A9551F7DF91CF917F906F903F902F9089
:1004E0002F923F924F925F926F927F928F929F9244
:1004F000AF92BF92CF92DF92EF92FF920F931F9332
:10050000CF93DF93FF2408E0E02EC4E3D4E06880BB
:1005100079804A805B807594679443015594479431
:10052000640C751C84189508AC80BD804E805F807B
:10053000B594A794650155944794A40CB51CC418B0
:10054000D508688579854A845B84759567958B01A4
:1005500055944794640D751D041915098C859D8566
:100560004E845F84959587959C0155944794840D9E
:10057000951D24193509759467942301B594A794A2
:100580006A0C7B1C4A185B08959487945401D59497
:10059000C7948C0C9D1CAC18BD08759567956B01B4
:1005A00095958795680F791FC81AD90A759467942D
:1005B000130175956795660E771E261A370A42E86D
:1005C0005AE51503C001049FB00114039F09700D83
:1005D000811D9F1D509F700D811D9F1D95948794B7
:1005E0008401880E991E081B190B55944794D2015B
:1005F000D594C7944C0C5D1CAC19BD093503C001E2
:10060000249FB00134039F09700D811D9F1D529FCF
:10061000700D811D9F1DB594A7946501A80EB91E8C
:10062000C81AD90A699279928992999249925992F3
:10063000A992B9922992399209931993A993B993DE
:10064000C992D992EA9409F062CF00E2C02EDD246B
:1006500004E0902EE6EBF2E000E1A02EBB2404E0E3
:10066000E02EA4E3B4E0ED01CA0DDB1D8E2C2D902D
:100670003C90488059803594279431015594479493
:10068000640C751C24183508299239927C926E925C
:10069000AC0DBD1D1197EA94088119813C912E91F2
:1006A000459155916591759115022001049F1001A6
:1006B00014035F08300C411C5F1C509F300C411C20
:1006C0005F1C37023001269F200C311C461C571C32
:1006D00036035F08300C411C5F1C729F300C411CBC
:1006E0005F1C0E01CA19DB092880398035942794D4
:1006F0003101640C751C2418350868827982E00188
:100700002992399217022001069F100116035F08F3
:10071000300C411C5F1C709F300C411C5F1C35026B
:100720003001249F201831084608570834035F1C05
:10073000301841085F08529F301841085F080D01CA
:10074000AA19BB092D903C90359427943101640C73
:10075000751C241835087C926E92D0012D923C9223
:100760001297EA9409F098CFDE01AA19BB092D90DF
:100770003C90488059803594279431015594479492
:10078000640C751C24183508288239827C926E927C
:10079000C50196958795C80FD91FC43BD90540F46C
:1007A000DE01CA0DDB1DE82CEA19FB0934965FCF88
:1007B00084FC06C0EA2CE6945601CC0CDD1C51CF1B
:1007C000DF91CF911F910F91FF90EF90DF90CF902D
:1007D000BF90AF909F908F907F906F905F904F9061
:1007E0003F902F9011242F923F924F925F926F92E1
:1007F0007F928F929F92FF920F931F93CF93DF93DD
:10080000A4E3B4E0C8E3D2E0E4EBF4E04F01FF245A
:1008100040E20D911D91980106C0F4010D911D91CA
:10082000329122914F0111022001009F1001980383
:100830005F08300C411C5F1C33023001229F200CEA
:10084000311C461C571CBA035F08300C411C5F1C4E
:100850001127552051F01CE0E52DE034F8F4440C4C
:10086000EE1F440CEE1F1A95F8CF442051F018E00B
:10087000E42DE03498F4330CEE1F330CEE1F1A9580
:10088000F8CF332051F014E0E32DE03438F4220C9B
:10089000EE1F220CEE1F1A95F8CFE22DFF27E2582B
:1008A000FE4F04911295010F09934A9509F0B5CFB7
:1008B000DF91CF911F910F91FF909F908F907F902C
:1008C0006F905F904F903F902F9011240895AF92BA
:1008D000BF92CF92DF92EF92FF920F931F93CF932D
:1008E000DF930F2EF4E6CF2ED12CF02DC9E7D0E008
:1008F00004EB14E00F2EF8E5EF2EF2E0FF2EF02DC2
:1009000080E00E942E09A12CB12C0E94BC09888194
:10091000F501E85AFD4F80838FEFA81AB80AE0E48A
:10092000AE16B10491F783E00E942E090F2EF4E376
:10093000AF2EF4E0BF2EF02D0E94BC09888190E01C
:10094000F501819391935F010E171F07A9F730916D
:10095000290280E090E0FC01E85AFD4F2081321727
:1009600020F4FC01E85AFD4F308101968034910556
:1009700091F7309329020E941B0290912A02EAE328
:10098000F2E08191981708F4982FEE15FF05C9F74A
:1009900090932A02F1E0CF1AD10809F0B1CF8091EB
:1009A00029028D5F809329029D5F90932A02109205
:1009B0000001DF91CF911F910F91FF90EF90DF9099
:1009C000CF90BF90AF90089530912A02EAE3F2E011
:1009D00048E552E080E090E02191231728F4DC0103
:1009E000AC55BD4F1C9204C0DC01AC55BD4F2C93DF
:1009F0000196E417F50781F708954F925F926F9281
:100A00007F928F929F92AF92BF92CF92DF92EF929E
:100A1000FF920F931F93CF93DF9380910301813057
:100A200069F4209128028091270290E0820F911DA5
:100A300095958795809328028093270260912802DC
:100A400070E080E090E00E94960A23E333E343EBFA
:100A50005FE30E94960B6B017C0160931902709317
:100A60001A0280931B0290931C0226E636E646E6A5
:100A70005FE36091150270911602809117029091C8
:100A800018020E94290B4B015C012DEC3CEC4CEC54
:100A90005DE3C701B6010E94290B9B01AC01C501B2
:100AA000B4010E94F4096B017C01609315027093FC
:100AB000160280931702909318026091270270E04B
:100AC00080E090E00E94960A23E333E343EB5FE388
:100AD0000E94960B4B015C016093210270932202ED
:100AE000809323029093240226E636E646E65FE3EF
:100AF00060911D0270911E0280911F029091200250
:100B00000E94290B2B013C012DEC3CEC4CEC5DE3ED
:100B1000C501B4010E94290B9B01AC01C301B201C4
:100B20000E94F4094B015C0160931D0270931E0248
:100B300080931F029093200220E030E040E450E4D4
:100B40000E94240B18160CF078C020E030E040E43E
:100B500050E4C701B6010E94240B18160CF06DC0BA
:100B6000A5019401C701B6010E94F40920E030E01C
:100B700040E05FE30E94290B2AE037ED43E25CE3AB
:100B80000E94290B2B013C0124EA30E74DE75FE38B
:100B900060911102709112028091130290911402DF
:100BA0000E94290B9B01AC01C301B2010E94F40910
:100BB00060931102709312028093130290931402B7
:100BC00026E636E646EE5FE30E94290B0E94600AA5
:100BD0008B0170930E0260930D02C0910101D0E071
:100BE000C501B4010E94600AC69F9001C79F300DE5
:100BF000D69F300D1124C901B8010E94B10D77278D
:100C0000C617D7070CF4BE0160931002C701B601E6
:100C10000E94600AC69F9001C79F300DD69F300D7D
:100C20001124C901B8010E94B10D7727C617D70753
:100C30000CF4BE0160930F0204C0109210021092D7
:100C40000F02DF91CF911F910F91FF90EF90DF90F6
:100C5000CF90BF90AF909F908F907F906F905F905C
:100C60004F9008952F923F924F925F926F927F9292
:100C70008F929F92AF92BF92CF92DF92EF92FF92AC
:100C80000F931F93CF93DF93CDB7DEB729970FB69E
:100C9000F894DEBF0FBECDBF30E080E090E0FC01F5
:100CA000EC55FD4F2081321720F4FC01EC55FD4F2F
:100CB000308101968330910591F7398340E083E0DC
:100CC00090E0FC01EC55FD4F2081421720F4FC011F
:100CD000EC55FD4F408101968730910591F74A838D
:100CE00060E088E090E0FC01EC55FD4F2081621748
:100CF00020F4FC01EC55FD4F608101968E31910589
:100D000091F76B83353008F435E0341708F4342F4D
:100D1000631708F4632F70E080E090E00E94980A67
:100D20002AE037ED43E25CE30E94290B6B017C0172
:100D300024EA30E74DE75FE36091090270910A020F
:100D400080910B0290910C020E94290B9B01AC0137
:100D5000C701B6010E94F4096093090270930A0268
:100D600080930B0290930C02CE0101969D838C839D
:100D70000F2EF8E92F2EF2E03F2EF02D0F2EFCE281
:100D80006F2EF2E07F2EF02D0EE214E00F2EF4EA2B
:100D90004F2EF2E05F2EF02DAC81BD816D91BD83B1
:100DA000AC8370E080E090E00E94980A4B015C0107
:100DB00024EA30E74DE75FE3F101608171818281D0
:100DC00093810E94290B6B017C012AE037ED43E2FD
:100DD0005CE3C501B4010E94290B9B01AC01C70172
:100DE000B6010E94F4096B017C01D1016D937D93E2
:100DF0008D939D931D0126E636E646E65FE3F301FB
:100E000060817181828193810E94290B6E837F832F
:100E1000888799872DEC3CEC4CEC5DE3C501B4016F
:100E20000E94290B9B01AC016E817F818885998589
:100E30000E94F4094B015C01D3016D937D938D9366
:100E40009D933D012AE939E949E95FE3C701B6010C
:100E50000E94290B9B01AC01C501B4010E94240B27
:100E6000181634F48FEF90E0F801918380830FC05F
:100E7000F80180819181181619061CF40A97918354
:100E8000808380819181992314F4118210820E5FF6
:100E90001F4F2414350409F07FCF29960FB6F8941C
:100EA000DEBF0FBECDBFDF91CF911F910F91FF909D
:100EB000EF90DF90CF90BF90AF909F908F907F90FA
:100EC0006F905F904F903F902F90089588B180630E
:100ED00088B982E40E94E1090E94D80980E00E945A
:100EE000180980E00E942E0980E20E947C0981E0BE
:100EF0000E94CB090E94C50978940E94E5090E94CE
:100F0000670480910401813089F018F08331E9F0A1
:100F1000FACF809106028130A1F70E94AC010E94B5
:100F2000FA010E94FD0410920602EBCF80910602A6
:100F3000813039F70E94AC010E941B020E94E40438
:100F40000E94320610920602DCCF809106028130A8
:100F5000C1F6809102018823E9F00F2EF2E0EF2E16
:100F6000F3E0FF2EF02D00E010E0C0E0D0E0609153
:100F7000250270912602C8010E940B09F701819396
:100F80007F012196015F1F4F8091020190E0C817F9
:100F9000D9076CF380912502909126024496909394
:100FA00026028093250210920602ABCF1F920F9269
:100FB0000FB60F9211248F939F93EF93FF9380911D
:100FC000B90090E08C7F8838910509F4C9C04CF4D1
:100FD0008036910509F491C08038910509F493C0D9
:100FE000C3C0883B9105B9F1803C910509F481C0EB
:100FF000883A910509F0B8C010922B028091040143
:10100000813069F4E0912B028E0F80932B02F0E087
:10101000EE0FFF1FE25DFB4F80818093BB0080914C
:101020000401811104C080910F028093BB00809164
:101030000401833161F4E0912B0281E08E0F8093F3
:101040002B02F0E0EE5FFC4F80818093BB0085ECCB
:101050008093BC008CC0809104018130F1F4E09158
:101060002B028E0F80932B02F0E0EE0FFF1FE25D4C
:10107000FB4F80818093BB0080912B02833049F429
:1010800010922B0281E08093060285E88093BC00D9
:101090006EC085EC8093BC006AC081110BC080914A
:1010A00010028093BB0081E08093060285E8809364
:1010B000BC005DC0E0912B0281E08E0F80932B027B
:1010C000F0E0EE5FFC4F80818093BB0090912B029B
:1010D00080910201981309C010922B0281E0809345
:1010E000060285E88093BC0042C085EC8093BC007A
:1010F0003EC085EC8093BC003AC085EC8093BC0078
:101100001092080234C0809108028F5F8093080219
:1011100080910802813041F48091BB0080930702E6
:1011200085EC8093BC0023C0809108028230F9F4E2
:1011300080910702813029F48091BB0080930401E3
:101140000BC080910702823039F48091BB008093FC
:10115000020186958093010185E88093BC0007C059
:1011600085EC8093BC0003C085EC8093BC00FF91AC
:10117000EF919F918F910F900FBE0F901F90189538
:10118000880F880B0895BF92CF92DF92EF92FF9263
:101190000F931F93CF93DF937B01A92FBB27AB5FE7
:1011A000BE4FEC91EF0DF0E0EB5FFE4FB080992762
:1011B00095958795B82FBF77CB2ECB01992795951D
:1011C0008795C82FCF778E2D0E94C008EB2DF0E0B9
:1011D000EB5FFE4F908192FD03C02C2F8C2D02C03F
:1011E0002C2D8C2F90FD819591FD2195022E000CC8
:1011F000330B280F311D87FD3A9535952795817062
:10120000820FDF91CF911F910F91FF90EF90DF90B0
:10121000CF90BF9008950E94C308805C90E0880F33
:10122000991F8F3F910519F010F08FEF90E008950E
:10123000ECE7F0E090819F739083813019F0823069
:1012400039F00895ECE7F0E08081806480830895B0
:10125000ECE7F0E08081806C80830895E82FACE7B4
:10126000B0E08C91807F8C938E2F90E0FC013197C1
:10127000EA30F10508F03FC0EC5CFF4F0C94C50D5F
:10128000ECE7F0E08081816080830895ECE7F0E096
:101290008081826080830895ECE7F0E08081836044
:1012A00080830895ECE7F0E0808184608083089576
:1012B000ECE7F0E08081856080830895ECE7F0E062
:1012C0008081866080830895ECE7F0E0808187600C
:1012D00080830895ECE7F0E0808188608083089542
:1012E000ECE7F0E080818E6080830895ECE7F0E029
:1012F00080818F6080830895EAE7F0E09081987F95
:101300009083803109F138F4843091F08830B1F065
:10131000823089F507C0803419F1803839F1803284
:1013200051F518C0EAE7F0E080818160808308957C
:10133000EAE7F0E08081826080830895EAE7F0E0E8
:101340008081836080830895EAE7F0E08081846093
:1013500080830895EAE7F0E08081856080830895C6
:10136000EAE7F0E08081866080830895EAE7F0E0B4
:101370008081876080830895EAE7F0E0808180645F
:101380008083808186FDFDCF0895EAE7F0E08081CB
:10139000806880830895ECE7F0E090819F7D9083E2
:1013A000208130E2839FC0011124822B8083089525
:1013B00088E48093B8001092B90085EC8093BC005B
:1013C0000895880F8093BA00089588E08093C40040
:1013D000E1ECF0E0808188618083E2ECF0E08081E4
:1013E0008660808308955058BB27AA270E940B0A65
:1013F0000C94EA0A0E94DC0A38F00E94E30A20F00A
:1014000039F49F3F19F426F40C94D90A0EF4E095B0
:10141000E7FB0C94D30AE92F0E94FB0A58F3BA1792
:10142000620773078407950720F079F4A6F50C94FA
:101430001D0B0EF4E0950B2EBA2FA02D0B01B90158
:1014400090010C01CA01A0011124FF27591B99F03A
:10145000593F50F4503E68F11A16F040A22F232F46
:10146000342F4427585FF3CF469537952795A79596
:10147000F0405395C9F77EF41F16BA0B620B730B3D
:10148000840BBAF09150A1F0FF0FBB1F661F771FAE
:10149000881FC2F70EC0BA0F621F731F841F48F463
:1014A000879577956795B795F7959E3F08F0B0CFEC
:1014B0009395880F08F09927EE0F979587950895D3
:1014C0000E94670A6894B1110C941E0B08950E9443
:1014D000030B88F09F5798F0B92F9927B751B0F0B8
:1014E000E1F0660F771F881F991F1AF0BA95C9F7A8
:1014F00014C0B13091F00E941D0BB1E008950C941E
:101500001D0B672F782F8827B85F39F0B93FCCF3D0
:10151000869577956795B395D9F73EF49095809524
:10152000709561957F4F8F4F9F4F0895E89409C044
:1015300097FB3EF490958095709561957F4F8F4F06
:101540009F4F9923A9F0F92F96E9BB279395F6951C
:10155000879577956795B795F111F8CFFAF4BB0F9A
:1015600011F460FF1BC06F5F7F4F8F4F9F4F16C0FE
:10157000882311F096E911C0772321F09EE8872F88
:10158000762F05C0662371F096E8862F70E060E044
:101590002AF09A95660F771F881FDAF7880F9695BD
:1015A000879597F9089597F99F6780E870E060E064
:1015B00008959FEF80EC089500240A9416161706EC
:1015C00018060906089500240A9412161306140634
:1015D00005060895092E0394000C11F4882352F097
:1015E000BB0F40F4BF2B11F460FF04C06F5F7F4F4F
:1015F0008F4F9F4F089557FD9058440F551F59F036
:101600005F3F71F04795880F97FB991F61F09F3FEF
:1016100079F087950895121613061406551FF2CF18
:101620004695F1DF08C0161617061806991FF1CF68
:1016300086957105610508940895E894BB2766278F
:101640007727CB0197F908950E94200C08F48FEFBB
:1016500008950E943C0B0C94EA0A0E94DC0A38F0C0
:101660000E94E30A20F0952311F00C94D30A0C9405
:10167000D90A11240C941E0B0E94FB0A70F3959F4B
:10168000C1F3950F50E0551F629FF001729FBB2779
:10169000F00DB11D639FAA27F00DB11DAA1F649F15
:1016A0006627B00DA11D661F829F2227B00DA11DC8
:1016B000621F739FB00DA11D621F839FA00D611D4E
:1016C000221F749F3327A00D611D231F849F600D6F
:1016D000211D822F762F6A2F11249F5750409AF098
:1016E000F1F088234AF0EE0FFF1FBB1F661F771F24
:1016F000881F91505040A9F79E3F510580F00C94EF
:10170000D30A0C941E0B5F3FE4F3983ED4F3869506
:1017100077956795B795F795E7959F5FC1F7FE2B8E
:10172000880F911D9695879597F90895FA01EE0F08
:10173000FF1F309621053105A1F16115710561F496
:101740008038BFE39B0749F168949038810561F0C8
:101750008038BFEF9B0741F099234AF5FF3FE10531
:101760003105210519F1E8940894E795D901AA23D8
:1017700029F4AB2FBE2FF85FD0F310C0FF5F70F4D9
:10178000A695E0F7F73950F019F0FF3A38F49F7753
:101790009F930DD00F9007FC9058089546F00C943D
:1017A000D90A60E070E080E89FE308954FE79F77F3
:1017B0005F934F933F932F930E94B50C2F913F91CE
:1017C0004F915F910E94290B0C94EE0B29F416F0B7
:1017D0000C94D30A0C941D0B0C94D90A0E94030B91
:1017E000A8F39638A0F707F80F92E8942BE33AEAAB
:1017F00048EB5FE70E943F0B0F920F920F924DB79D
:101800005EB70F920E94FD0CECE7F0E00E94440CE2
:101810004F915F91EF91FF91E595EE1FFF1F49F00A
:10182000FE57E0684427EE0F441FFA95E1F7419513
:10183000550B0E94770C0F9007FE0C946B0C0895CB
:10184000990F0008550FAA0BE0E8FEEF16161706D1
:10185000E807F907C0F012161306E407F50798F039
:10186000621B730B840B950B39F40A2661F0232B52
:10187000242B252B21F408950A2609F4A140A695CE
:101880008FEF811D811D0895DF93CF931F930F93D9
:10189000FF92EF92DF927B018C01689406C0DA2EF2
:1018A000EF010E943C0BFE01E894A5912591359132
:1018B00045915591A6F3EF010E940B0AFE01970195
:1018C000A801DA9469F7DF90EF90FF900F911F91D4
:1018D000CF91DF9108959B01AC0160E070E080E85A
:1018E0009FE30C94310D0C94D30A0C94A30D0E9429
:1018F000030BD8F39923C9F3940F511DA3F391500F
:10190000504094F059F0882332F0660F771F881FFB
:1019100091505040C1F79E3F51052CF7880F911D03
:101920009695879597F908955F3FACF0983E9CF0A7
:10193000BB27869577956795B79508F4B160939521
:10194000C1F7BB0F58F711F460FFE8CF6F5F7F4F0F
:101950008F4F9F4FE3CF0C941E0B16F00C94A30DEA
:101960000C94D90A68940C94D30A0E94030BA8F330
:101970009923C1F3AEF3DF93CF931F930F93FF929D
:10198000C92FDD2788232AF02197660F771F881F2C
:10199000DAF720E030E040E85FEB9FE3883920F0A1
:1019A000803E38F021968F770E94F409E4EAF0E057
:1019B00004C00E94F409E1EDF0E00E94440C8B01A8
:1019C000BE01EC01FB2E6F5771097595771F880BCF
:1019D000990B0E94980A28E132E741E35FE30E94F5
:1019E0003C0BAF2D9801AE01FF900F911F91CF914D
:1019F000DF910E940B0A0C94EA0AFA01DC01AA0F9B
:101A0000BB1F9B01AC01BF5728F422273327442773
:101A1000507820C0B75190F4AB2F002446953795ED
:101A20002795011CA395D2F3002071F0220F331FDC
:101A3000441FB395DAF30ED00C94F30961307105AD
:101A4000A0E88A07B94630F49B01AC0166277727E6
:101A500088279078309621F0208331834283538306
:101A600008950E94450D0C94EA0A0E94E30A58F07A
:101A70000E94DC0A40F029F45F3F29F00C94D30A5D
:101A800051110C941E0B0C94D90A0E94FB0A68F3A6
:101A90009923B1F3552391F3951B550BBB27AA2727
:101AA00062177307840738F09F5F5F4F220F331F61
:101AB000441FAA1FA9F335D00E2E3AF0E0E832D029
:101AC00091505040E695001CCAF72BD0FE2F29D02C
:101AD000660F771F881FBB1F261737074807AB07FE
:101AE000B0E809F0BB0B802DBF01FF2793585F4F73
:101AF0003AF09E3F510578F00C94D30A0C941E0BDB
:101B00005F3FE4F3983ED4F3869577956795B79554
:101B1000F7959F5FC9F7880F911D9695879597F95F
:101B20000895E1E0660F771F881FBB1F62177307D8
:101B30008407BA0720F0621B730B840BBA0BEE1FED
:101B400088F7E09508959F3F31F0915020F48795F4
:101B500077956795B795880F911D9695879597F915
:101B6000089597FB072E16F4009407D077FD09D04F
:101B70000E94CB0D07FC05D03EF4909581959F4FB8
:101B80000895709561957F4F0895EE0FFF1F0590A2
:101B9000F491E02D0994AA1BBB1B51E107C0AA1FB9
:101BA000BB1FA617B70710F0A61BB70B881F991FFE
:101BB0005A95A9F780959095BC01CD010895F894A8
:021BC000FFCF55
:101BC200013A75011397A0895B5A0F830DC95F60B3
:101BD20035C2E907E18C24671E458E086325F0159E
:101BE2000A17BE0694F778EA4B001AC53E5EFCDB84
:101BF200CB75230B2039B12158ED953857AE147DA2
:101C020088ABA844AF4AA547868B301BA64D929E4F
:101C1200E7536FE57A3CD385E6DC695C29372EF51C
:101C220028F4668F3641193FA101D85049D14C841E
:101C3200BBD05912A9C8C4878274BC9F56A4646DD4
:101C4200C6ADBA034034D9E2FA7C7B05CA26937644
:101C52007EFF5255D4CFCE3BE32F103A11B6BD1CB6
:101C62002ADFB7AAD577F898022C9AA346DD9965A0
:101C72009BA72BAC09811627FD13626C6E4F71E096
:101C8200E8B2B97068DAF661E4FB22F2C1EED290F2
:101C92000CBFB3A2F1513391EBF90EEF6B31C0D609
:101CA2001FB5C76A9DB854CCB07379322D7F0496A4
:101CB200FE8AECCD5DDE72431D1848F38D80C34E63
:061CC20042D73D9CB497DF
:00000001FF
